S01200006C63645F6B65797061642E7372656302
S11300000C942A000C943F000C943F000C943F0085
S11300100C943F000C943F000C943F000C943F0060
S11300200C943F000C943F000C943F000C943F0050
S11300300C943F000C943F000C943F000C943F0040
S11300400C943F000C943F000C943F000C943F0030
S11300500C943F0011241FBECFE5D8E0DEBFCDBF16
S113006010E0A0E6B0E0E4E8F3E002C005900D92F1
S1130070A037B107D9F70E94A9010C94C0010C94D0
S1130080000081B3807F81BB81B3806F81BB8FEF20
S113009082BB0895EF92FF920F931F93CF93DF9348
S11300A0C0E6D0E060E070E0DE0141E050E092B3F1
S11300B0FA010C9002C0EE0FFF1F0A94E2F79A01B6
S11300C012960C90129702C0220F331F0A94E2F783
S11300D02E2B822F892B9A0114960C90149702C010
S11300E0220F331F0A94E2F7282BCA0116960C90AC
S11300F0169702C0880F991F0A94E2F7822B82BBDD
S113010092B3888122969A0102C0220F331F8A95E6
S1130110E2F7822F8095892382BBE8E6F0E0EE24A3
S1130120E394F12C00E010E005C00F5F1F4F8FEF48
S1130130E81AF80A80B32081329690E0022E02C0B9
S1130140959587950A94E2F780FD50C0CA0102C0D4
S1130150880F991F2A95E2F79C0180B390E08223CF
S11301609323892BD1F361307105C9F024F461150F
S1130170710541F03BC062307105F1F063307105E7
S113018041F134C001151105F1F101301105E9F116
S113019002301105E1F10330110541F53AC00115B2
S11301A01105C9F101301105C1F102301105B9F190
S11301B003301105D9F435C001151105A1F1013041
S11301C0110599F10230110591F10330110571F413
S11301D030C00115110579F10130110571F10230BA
S11301E0110569F10330110571F52BC094E0E9168E
S11301F0F1040CF49ACF6F5F7F4F6430710509F0FE
S113020056CF81E426C087E324C084E322C081E37F
S113021020C08FE31EC088E31CC085E31AC082E3BC
S113022018C080E316C089E314C086E312C083E3D8
S113023010C08DE30EC08FE20CC08AE20AC08DE2CA
S113024008C08BE206C084E0E816F1040CF46DCF1C
S113025081E4DF91CF911F910F91FF90EF9008956A
S1130260C39A83ED90E30197F1F700C00000C398AF
S113027008958AB38F708ABBC29AC1980E943001D4
S11302808AB3806F8ABBC2980895CF93C82F0E9407
S113029039018BB38F709C2F907F892B8BBB88B3D4
S11302A0897F88BB0E9430018BB3282F2F7030E1E7
S11302B0C39FC0011124822B8BBB88B3897F88BB69
S11302C00E943001CF91089581E00E944501089574
S11302D087E893E10197F1F700C0000087B38E60CF
S11302E087BB88B3817F88BB8FEF8ABB85EA9EE09A
S11302F00197F1F700C000000E94640182E00E94AF
S1130300450188E20E94450186E00E94450180E89B
S11303100E9445018FE00E9445010895CF93C82FA4
S11303208BB38F709C2F907F892B8BBBC19AC29803
S11303300E9430018BB3282F2F7030E1C39FC0017E
S11303401124822B8BBBC19AC2980E943001CF9199
S113035008950E9468010E94410083ED90E3019793
S1130360F1F700C000000E944A008F3319F0813475
S1130370D1F303C00E946401F6CF0E948E01F3CF33
S1070380F894FFCF1B
S11303840400050006000700000001000200030049
S9030000FC
